{
  "transactions": [
    {
      "hash": "0x59bf65f38346fc8a4fb35e2daa2a35ce6a9ca8128d6e17306af718c78e1fba9a",
      "transactionType": "CALL",
      "contractName": null,
      "contractAddress": "0x779877a7b0d9e8603169ddbd7836e478b4624789",
      "function": "transferAndCall(address,uint256,bytes)",
      "arguments": [
        "0x8103B0A8A00be2DDC778e6e7eaa21791Cd364625",
        "1000000000000000000",
        "0x0000000000000000000000000000000000000000000000000000000000002f13"
      ],
      "transaction": {
        "from": "0x6c06d818a28b86a42a347ba1a07b072ae445b5f5",
        "to": "0x779877a7b0d9e8603169ddbd7836e478b4624789",
        "gas": "0x1b43f",
        "value": "0x0",
        "input": "0x4000aea00000000000000000000000008103b0a8a00be2ddc778e6e7eaa21791cd3646250000000000000000000000000000000000000000000000000de0b6b3a7640000000000000000000000000000000000000000000000000000000000000000006000000000000000000000000000000000000000000000000000000000000000200000000000000000000000000000000000000000000000000000000000002f13",
        "nonce": "0x5",
        "chainId": "0xaa36a7"
      },
      "additionalContracts": [],
      "isFixedGasLimit": false
    }
  ],
  "receipts": [
    {
      "status": "0x1",
      "cumulativeGasUsed": "0x4349e3",
      "logs": [
        {
          "address": "0x779877a7b0d9e8603169ddbd7836e478b4624789",
          "topics": [
            "0xddf252ad1be2c89b69c2b068fc378daa952ba7f163c4a11628f55a4df523b3ef",
            "0x0000000000000000000000006c06d818a28b86a42a347ba1a07b072ae445b5f5",
            "0x0000000000000000000000008103b0a8a00be2ddc778e6e7eaa21791cd364625"
          ],
          "data": "0x0000000000000000000000000000000000000000000000000de0b6b3a7640000",
          "blockHash": "0x38995b6a77c766f2fce77ef03929390adc5c999a629a29de672d324a8a09a71b",
          "blockNumber": "0x611bc1",
          "transactionHash": "0x59bf65f38346fc8a4fb35e2daa2a35ce6a9ca8128d6e17306af718c78e1fba9a",
          "transactionIndex": "0x38",
          "logIndex": "0x3e",
          "removed": false
        },
        {
          "address": "0x779877a7b0d9e8603169ddbd7836e478b4624789",
          "topics": [
            "0xe19260aff97b920c7df27010903aeb9c8d2be5d310a2c67824cf3f15396e4c16",
            "0x0000000000000000000000006c06d818a28b86a42a347ba1a07b072ae445b5f5",
            "0x0000000000000000000000008103b0a8a00be2ddc778e6e7eaa21791cd364625"
          ],
          "data": "0x0000000000000000000000000000000000000000000000000de0b6b3a7640000000000000000000000000000000000000000000000000000000000000000004000000000000000000000000000000000000000000000000000000000000000200000000000000000000000000000000000000000000000000000000000002f13",
          "blockHash": "0x38995b6a77c766f2fce77ef03929390adc5c999a629a29de672d324a8a09a71b",
          "blockNumber": "0x611bc1",
          "transactionHash": "0x59bf65f38346fc8a4fb35e2daa2a35ce6a9ca8128d6e17306af718c78e1fba9a",
          "transactionIndex": "0x38",
          "logIndex": "0x3f",
          "removed": false
        },
        {
          "address": "0x8103b0a8a00be2ddc778e6e7eaa21791cd364625",
          "topics": [
            "0xd39ec07f4e209f627a4c427971473820dc129761ba28de8906bd56f57101d4f8",
            "0x0000000000000000000000000000000000000000000000000000000000002f13"
          ],
          "data": "0x00000000000000000000000000000000000000000000000000000000000000000000000000000000000000000000000000000000000000000de0b6b3a7640000",
          "blockHash": "0x38995b6a77c766f2fce77ef03929390adc5c999a629a29de672d324a8a09a71b",
          "blockNumber": "0x611bc1",
          "transactionHash": "0x59bf65f38346fc8a4fb35e2daa2a35ce6a9ca8128d6e17306af718c78e1fba9a",
          "transactionIndex": "0x38",
          "logIndex": "0x40",
          "removed": false
        }
      ],
      "logsBloom": "0x0000401400000000000000000000000000000000000000020000000002000000000000040000800000000000000000000000000000000000000000000000000000000000000000000000000800000000000000000000000000002000000000000000000000000000008000000000000000000000400000000000001000000000000000000c000020000400000000800010080020000000000000000000000000000000000000000000000000000000000000000000000000000400000000000000000002000000000000000000000000000000000000000100000000000000000000000000000080000000000000000000000000000000000000000000000000",
      "type": "0x2",
      "transactionHash": "0x59bf65f38346fc8a4fb35e2daa2a35ce6a9ca8128d6e17306af718c78e1fba9a",
      "transactionIndex": "0x38",
      "blockHash": "0x38995b6a77c766f2fce77ef03929390adc5c999a629a29de672d324a8a09a71b",
      "blockNumber": "0x611bc1",
      "gasUsed": "0x12a4a",
      "effectiveGasPrice": "0x6806912",
      "from": "0x6c06d818a28b86a42a347ba1a07b072ae445b5f5",
      "to": "0x779877a7b0d9e8603169ddbd7836e478b4624789",
      "contractAddress": null
    }
  ],
  "libraries": [],
  "pending": [],
  "returns": {},
  "timestamp": 1721771188,
  "chain": 11155111,
  "commit": "06c60ad"
}